:100000000C9409030C94E3180C9426030C94260317
:100010000C9426030C9426030C9426030C942603BC
:100020000C9426030C9426030C9426030C942603AC
:100030000C9426030C9426030C9426030C9426039C
:100040000C9499180C9426030C9426030C94260304
:100050000C9426030C9426030C9426030C9426037C
:100060000C9426030C942603200020000FED03219E
:10007000534449534B494920434647004E6F205350
:100080004420696E7365727465640046415431366C
:1000900000464154333200547970653A2000436F72
:1000A00064653A2000534420426C6F636B204552D4
:1000B000524F52004D697373696E67204D42522052
:1000C000202000436C7573746572203C2033326BC2
:1000D00042004E6F742046415431362F3332202077
:1000E00000426F6F7420736563746F72202020006C
:1000F00053442063616E277420696E697420005335
:10010000442063616E27742069646C65200045207B
:10011000522052204F2052004E6F726D616C20535E
:1001200044206361726400534448432063617264F5
:1001300020202020200020536F7274696E67206693
:10014000696C6573202E2E2E20202000204E6F74A7
:1001500068696E6720666F756E64206865726521D8
:100160002000204275696C64696E67206C69737445
:10017000002053454C454354204E49432020202025
:1001800020202020202000547261636B3A20002040
:1001900053442053454C4543542044454C41592039
:1001A0002020202000204C434420434F4E545241F5
:1001B00053542020202020202020002056616C75E0
:1001C000653A200020526F74617465206469737011
:1001D0006C6179202020202020002053657420634A
:1001E0006F6E747261737420202020202020200004
:1001F000205365742053442064656C61792020206D
:10020000202020202000202020202020202020200E
:100210002020202020202020202020002053455472
:100220005550202020202020202020202020202069
:100230002000204E49432020202020202020202064
:100240002020202020202000202076657273696FF6
:100250006E20352E362028323032342900202020DE
:10026000202020534449534B205D5B0000000000D8
:100270000000000000000000000080C0E0F0F8F87E
:100280003800000000000000000000000000000036
:10029000000000000000000000000000000000005E
:1002A000000000000000000000000000000000004E
:1002B00000000000000000C0E0F0F0F8F8F8F8F8E6
:1002C000F8F8F0F0F7F7FFFBF9F8F8F8F8F8F8F0BD
:1002D00070000000000000000000000000000000AE
:1002E000000000000000000000000000000000000E
:1002F0000000C0E0E000000000000000000000007E
:10030000FFFFFFFFFFFFFFFFFFFFFFFFFFFFFFFFFD
:10031000FFFFFFFFFFFFFFFF83007CFEFFC7C7C794
:100320000707FFFF00FFFFFF0787C7C7EFFEFE18A5
:1003300000FFFFFF07C7C7C7FFFE7C00FFFFFF00EE
:100340007CFEFFC7C7E7F7FFFFDF071F7FFFFFFF49
:10035000FFFFFFFFFFFFFFFFFFFFFFFFFFFFFFFFAD
:10036000FFFFFFFEFC380101010100000101000751
:100370000F0F0001010101000000000F0F07000135
:100380000101010000000101010000000101010163
:10039000010101010000000103070F1F1F1F1F1FA4
:1003A0000F0F0F0F0F0F1F1F1F1F1F0F070300003F
:1003B000000000000000000000000000000000003D
:1003C000000000000000000000000000000000002D
:1003D0000000000000000000000000000000081401
:1003E0001C1C1C1C1C1C366363220000FFFFF7E36F
:1003F000E3F7FFFD0000007432524242424A4C2EA5
:1004000000000000000402FF0204000000000000E1
:10041000002040FF40200000000000002070A820C5
:1004200020203F0000000000FE8282828484FC00C5
:100430000000000000000000005F0000000700074F
:1004400000147F147F14242A7F2A12231308646265
:1004500036495522500005030000001C22410000CF
:1004600041221C0014083E081408083E08080050E9
:10047000300000080808080800606000002010082C
:1004800004023E5149453E00427F400042615149CD
:10049000462141454B311814127F102745454539F7
:1004A0003C4A494930017109050336494949360634
:1004B0004949291E0036360000005636000008144F
:1004C0002241001414141414004122140802015192
:1004D0000906324979413E7E1111117E7F49494911
:1004E000363E414141227F4141221C7F49494941D9
:1004F0007F090909013E4149497A7F0808087F00C0
:10050000417F41002040413F017F081422417F404C
:100510004040407F020C027F7F0408107F3E414133
:10052000413E7F090909063E4151215E7F09192993
:1005300046464949493101017F01013F4040403F62
:100540001F2040201F3F4038403F631408146307BA
:10055000087008076151494543007F41410002048A
:100560000810200041417F00040201020440404085
:100570004040000102040020545454787F48444411
:10058000383844444420384444487F38545454183C
:10059000087E0901020C5252523E7F080404780082
:1005A000447D40002040443D007F1028440000412D
:1005B0007F40007C041804787C08040478384444A4
:1005C00044387C14141408081414187C7C0804049F
:1005D000084854545420043F4440203C4040207C70
:1005E0001C2040201C3C4030403C44281028440C37
:1005F0005050503C4464544C4400083641000000C4
:100600007F000000413608001008081008000609A5
:10061000090611241FBECFEFD8E0DEBFCDBF11E029
:10062000A0E0B1E0E2E8F6E302C005900D92A6304A
:10063000B107D9F726E0A6E0B1E001C01D92A83FBE
:10064000B207E1F70E9446190C943F1B0C9400007E
:100650000E943E1162E085E20E941A118EE091E054
:100660000E941E1264E086E10E941A118CE790E05D
:100670000E941E12499BFECF089514B817B81AB8ED
:1006800015B818B81BB8249A2C9A399A3B9A419AF3
:1006900017BC14BC91E095BD22E025BF20936900F2
:1006A000109294061092CE061092CD061092CC06AF
:1006B000109292061092910610929A069093A006BC
:1006C00010929F06109210011092180129E131E05A
:1006D0003093A3062093A206882319F10E9460118B
:1006E0000E943E1160E080E00E941A110E94801278
:1006F00066E08DE00E941A118DE592E00E941E12C4
:1007000067E087E00E941A1188E492E00E941E12BE
:100710002FE988E99BE7215080409040E1F700C035
:10072000000008951F93CF93DF93182FD62FC42F67
:1007300067E080E00E941A110E94121186E092E0A8
:100740000E941E1267E080E00E941A11812F90E043
:100750000E942D1267E08AE30E941A118D2F90E00B
:100760000E942D1267E083E70E941A118C2F90E0FF
:100770000E942D12DF91CF911F910C941211FC0158
:10078000892B89F08081882379F0853E61F08F354F
:1007900051F080858E3439F48185893421F481E0EB
:1007A0009285933409F080E00895FC01892B59F07B
:1007B0008081882349F0853E31F08F3521F0838593
:1007C00082958170089580E00895CF92DF92EF9234
:1007D000FF920F931F93CF93DF938FEF9FEF909331
:1007E0000101809300010E94E3166B017C01672BDD
:1007F000682B692BD9F180E090E00E94141800E08A
:1008000010E0C8010E947017EC01892B49F1888122
:10081000853E11F0811124C08B858F3009F1109332
:1008200001010093000160E770E0CE010E94A31A6D
:1008300081E08B87FD8AEC8ADB8ECA8E6091D806B8
:100840007091D9068091DA069091DB06DF91CF9105
:100850001F910F91FF90EF90DF90CF900C947E143A
:100860000F5F1F4F003981E0180759F6DF91CF91D4
:100870001F910F91FF90EF90DF90CF9008958F928E
:100880009F92AF92BF92CF92DF92EF92FF921F930F
:10089000CF93DF93182FD62FC42F862F90E020E11F
:1008A000429F800D911D1124FC010090F70602C0AB
:1008B000F695E7950A94E2F7EE0FFF1FEE0FFF1F84
:1008C000EC55F94F408151816281738120E12BB950
:1008D0001BB82091F60630E0215031098223932382
:1008E000C090E306D090E406E090E506F090E606BE
:1008F00046015701880E991EA11CB11C4250510996
:10090000610971090090F70604C0440F551F661F66
:10091000771F0A94D2F7480D591D6A1D7B1D88E187
:100920000E9477138FEF0E94AE128EEF0E94AE12DC
:1009300080EB90E038E028E23BB92BB90197E1F772
:100940001BB883E00E94AE128CEF0E94AE128FEFB4
:100950000E94AE128FE30E94AE128FEC0E94AE1284
:1009600083EF0E94AE128CEF0E94AE128FEF0E94B6
:10097000AE128FE30E94AE128FEC0E94AE1283EF94
:100980000E94AE128CEF0E94AE1285ED0E94AE1254
:100990008AEA0E94AE1286E90E94AE128FEF0E9490
:1009A000AE128EEF0E94AE128C2F86958A6A0E943C
:1009B000AE128C2F8A6A0E94AE128D2F86958A6A9B
:1009C0000E94AE128D2F8A6A0E94AE128EEFD82737
:1009D000CD278C2F86958A6A0E94AE128C2F8A6A48
:1009E0000E94AE128EED0E94AE128AEA0E94AE12F2
:1009F0008BEE0E94AE128FEF0E94AE128FEF0E941C
:100A0000AE128FEF0E94AE128FEF0E94AE128FEFE8
:100A10000E94AE128EE591E0189FB001199F700DF3
:100A2000112480E090E050E2A8E0B8E2FB01E80F7A
:100A3000F91FE75EFE4FE08128E030E040E8FE2F3E
:100A4000F42319F0ABB9BBB902C01BB85BB946952A
:100A500021503109A1F701968D3521E0920731F738
:100A60001BB880E790E038E028E23BB92BB901974A
:100A7000E1F71BB880E093E020E21BB82BB90197A7
:100A8000E1F71BB88FEF0E94AE128FEF0E94AE12FB
:100A90000E94C2120E94891580E18BB91BB8DF91B8
:100AA000CF911F91FF90EF90DF90CF90BF90AF90CC
:100AB0009F908F900895CF92DF92EF92FF920F93C5
:100AC0001F93CF93DF93499B35C00CE011E0F801F1
:100AD00081918F3F59F181E1C82E81E0D82E99E1B3
:100AE000E92E91E0F92EC0E0DFEFF80160816F3F61
:100AF00029F0F60140818C2F0E943F04F801D19328
:100B00008F01F601D1936F01F7011282CF5FF2EAF4
:100B1000EF1AFEEFFF0AC43041F71092100189E18D
:100B200091E09093A3068093A20604C081E0E03197
:100B3000F80771F6DF91CF911F910F91FF90EF9021
:100B4000DF90CF9008958091910690919206803920
:100B50009C40C0F488E08BB98091910690919206F8
:100B600028E238E0803140E1940730F4499B0AC024
:100B70002BB93BB90196F6CF80E99CE090939206A1
:100B8000809391060895499B6EC090911001292F82
:100B900030E04EE551E0249FF001259FF00D349F99
:100BA000F00D1124E75EFE4F82818D3A09F042C0BC
:100BB00080911801811131C080919406F901E45FA0
:100BC000FE4F8083F901EF5EFE4F40919F064695F0
:100BD00046954083282F2D7F2D3011F48E5F01C064
:100BE0008F5F8F7080939406933029F40E94A30541
:100BF0000E945B051CC09F5F909310014EE551E081
:100C0000949F9001959F300D1124C901875E9E4FDE
:100C10009093A3068093A2060DC080910A01809351
:100C20009406109218018F30F1F40E94A30581E020
:100C30008093A006209110018EE591E0289FF0019D
:100C4000299FF00D1124E75EFE4F8281863959F409
:100C500087818575880F90859575892B80930A010A
:100C600081E080931801089529E131E044E080E0BB
:100C700090E0F901E80FF91F108201968E3551E0DE
:100C80009507B9F74150225A3E4F4111F0CF8FEFEF
:100C90008093110180930C018093120180930D01C8
:100CA0008093130180930E018093140180930F01B0
:100CB0000895CF93C82F8FEF9FEF909301018093FA
:100CC00000010E946F135C98499903C00E94280399
:100CD0004CC089E191E09093DD068093DC060E9490
:100CE000CC14811144C00E943E1162E085E20E9452
:100CF0001A118EE091E00E941E1264E086E10E94CB
:100D00001A118091D506813019F48FEF90E004C05C
:100D1000823029F480EF90E00E941E1222C08330BE
:100D200019F481EE90E0F8CF843019F482ED90E070
:100D3000F3CF853019F483EC90E0EECF863019F4D0
:100D400084EB90E0E9CF873019F485EA90E0E4CFB6
:100D50008EE990E00E941E128091D50690E00E94DC
:100D6000E4111092CE064999FECF80E0B0C0CC23AA
:100D7000D9F00E943E1162E080E00E941A11809139
:100D8000E006823019F487E291E002C088E191E048
:100D90000E941E125C982FEB85E692E52150804060
:100DA0009040E1F700C000000E949015811143C0FF
:100DB0000E943E1162E085E20E941A118EE091E0ED
:100DC0000E941E1264E086E10E941A118091D506ED
:100DD000813019F48FEF90E004C0823029F480EF65
:100DE00090E00E941E1222C0833019F481EE90E040
:100DF000F8CF843019F482ED90E0F3CF853019F408
:100E000083EC90E0EECF863019F484EB90E0E9CFEC
:100E1000873019F485EA90E0E4CF8EE990E00E94F3
:100E20001E128091D50690E00E94E4111092CE0629
:100E30004999FECF9ACF4091F6062091F006309165
:100E4000F106429FC001439F900D112481159047E8
:100E5000D0F485E08093D5060E943E1162E085E2E1
:100E60000E941A118EE091E00E941E1264E086E159
:100E70000E941A1183EC90E00E941E121092CE067E
:100E80004999FECF72CFCC23E1F064E080E00E946C
:100E90001A1187E990E00E941E128091E7068630C1
:100EA00019F48BE890E002C081E990E00E941E12E4
:100EB0008FEB95E622E5815090402040E1F700C09D
:100EC00000005C980E9434060E946B1381E0CF9171
:100ED00008958F929F92AF92BF92CF92DF92EF923E
:100EE000FF920F931F93CF93DF936115710519F450
:100EF00080E090E055C17B01EC010E943E1160E072
:100F000080E00E941A110E940A1182E392E00E947E
:100F10001E1260E080E60E941A118091E70686307A
:100F200019F48BE890E002C081E990E00E941E1263
:100F30000E940A1141E060E082E00E94920362E0B8
:100F400080E00E941A1181E090E00E942D1267015A
:100F5000570108E0A00EB11CF60181916F018032AB
:100F600011F00E94A410AC14BD04B1F7D093070196
:100F7000C09306012091E706F701828D938D2B30F7
:100F800091F44489558960E070E0BA0155274427FF
:100F9000A0E0B0E08A019B01082B192B2A2B3B2BE8
:100FA000C901B80103C0BC0180E090E06115710582
:100FB0008105910509F49CCFE4EAF6E011921192C3
:100FC0001192119216E0EC3CF107C1F76093A40670
:100FD0007093A5068093A6069093A70611E0663F3E
:100FE000FFEF7F0781059105A8F40E947D16663FFB
:100FF0002FEF72078105910558F434E0139FF0013B
:101000001124EC55F94F60837183828393831F5FB2
:101010001A3028F38090EC069090ED06A090EE0632
:10102000B090EF068091000190910101019609F4C2
:1010300088C080E090E00E9414188FEF9FEFDC01E1
:101040008093D8069093D906A093DA06B093DB0676
:1010500080910001909101010E948318FC01209170
:10106000E706828D938D2B3071F4C488D588E12CEE
:10107000F12C7601DD24CC24A0E0B0E0C82AD92AE6
:10108000EA2AFB2A03C06C01E12CF12C02E0C01A11
:10109000D108E108F108A091F606B0E0A701960199
:1010A0000E94981A0091E3061091E4062091E5064B
:1010B0003091E606600F711F821F931F0E94271454
:1010C000E091DC06F091DD068DEC92E0ABEAB1E058
:1010D00080839183A283B383458156816781708524
:1010E0008185928584169506A606B70619F48C1795
:1010F0009D0731F04387548765877687908B878774
:1011000085829682A782B086D287C1878091D706D2
:1011100084838091A106818BA091F606B0E0A7019F
:1011200096010E94981AC090E306D090E406E090E1
:10113000E506F090E6066C0D7D1D8E1D9F1D0E943C
:101140007E148092EC069092ED06A092EE06B0928C
:10115000EF0610929206109291061092CD06109210
:101160009A06C1E0C093A00610929F0610929406C2
:10117000109210011092180189E191E09093A3065A
:101180008093A2065C9840E052E060E070E080E16D
:101190000E94BC130E943406C093CE0681E090E00A
:1011A000DF91CF911F910F91FF90EF90DF90CF9043
:1011B000BF90AF909F908F900895CF92DF92EF9263
:1011C000FF920F931F93CF93DF93C090EC06D090C4
:1011D000ED06E090EE06F090EF0680910001909110
:1011E0000101019609F477C080E090E00E94141894
:1011F0008FEF9FEFDC018093D8069093D906A093E0
:10120000DA06B093DB0680910001909101010E9403
:101210008318FC012091E706828D938D2B3079F4A1
:1012200024893589A90160E070E0BA015527442777
:10123000A0E0B0E0842B952BA62BB72B02C0A0E03A
:10124000B0E09C01AD012250310941095109A09142
:10125000F606B0E00E94981A0091E3061091E406A9
:101260002091E5063091E606600F711F821F931FE3
:101270000E942714E091DC06F091DD068FEF9FEFCE
:10128000DC018093D8069093D906A093DA06B09338
:10129000DB0683859485A585B6858093EC069093BF
:1012A000ED06A093EE06B093EF06C785D089CE0178
:1012B0000E9483188C010E94BF03882361F0B8014B
:1012C000CE01DF91CF911F910F91FF90EF90DF90B2
:1012D000CF900C946907C092EC06D092ED06E09294
:1012E000EE06F092EF06DF91CF911F910F91FF90E4
:1012F000EF90DF90CF9008955E9A2D9A5F9A0895AF
:10130000CF92DF92EF92FF920F931F93CF93DF93D1
:101310008091000190910101019611F4DFEA5BC018
:1013200080E090E00E94141889E191E09093DD063E
:101330008093DC060E9434061092D8061092D906DB
:101340001092DA061092DB06809100019091010163
:101350000E948318FC012091E706828D938D2B302B
:1013600079F424893589A90160E070E0BA01552734
:101370004427A0E0B0E0482B592B6A2B7B2B03C0FD
:10138000AC0160E070E0A091F6069A01AB0122503A
:10139000310941095109B0E00E94981A0091E30611
:1013A0001091E4062091E5063091E606600F711F6A
:1013B000821F931F0E942714E091DC06F091DD0646
:1013C00080819181A281B3818D3C9240AB4AB14032
:1013D00009F0A4CFD1890E943E1160E080E00E9414
:1013E0001A110E940A1185EA91E00E941E120E94C1
:1013F0000A1145E064E083E00E94920362E080E02D
:101400000E941A118BEB91E00E941E128D2F90E02A
:101410000E94E411ED2EFD2E0E947C09FE1481F045
:1014200062E080E00E941A118BEB91E00E941E1294
:101430008F2D90E00E94E4118AE690E00E941E1237
:10144000499BC0C04F9913C04F9BFECF8FEB9AE7CB
:1014500020E1815090402040E1F700C00000CFEF34
:10146000CF0DC093A1068C2F0E94961001C0CF2DE6
:101470001D9911C01D9BFECF8FEB9AE720E1815093
:1014800090402040E1F700C00000CF5FC093A1066C
:101490008C2F0E949610EF2C4E9B02C0FC2EBCCFCE
:1014A0004E9BFECF8FEB9AE720E181509040204089
:1014B000E1F700C00000DC1709F484C0C093A10666
:1014C0008C2F0E9496105C988091000190910101F0
:1014D000019609F477C080E090E00E94141889E139
:1014E00091E09093DD068093DC060E943406109212
:1014F000D8061092D9061092DA061092DB06809177
:101500000001909101010E948318FC012091E706DF
:10151000828D938D2B3071F4C488D588E12CF12C09
:101520007601DD24CC24A0E0B0E0C82AD92AEA2A3A
:10153000FB2A03C06C01E12CF12C82E0C81AD1080F
:10154000E108F108A091F606B0E0A70196010E941B
:10155000981A0091E3061091E4062091E506309177
:10156000E606600F711F821F931F0E942714E091EF
:10157000DC06F091DD0680819181A281B3818D3CF2
:101580009240AB4AB140F1F4C18BA091F606B0E0B5
:10159000A70196010E94981AC090E306D090E40635
:1015A000E090E506F090E6066C0D7D1D8E1D9F1DFA
:1015B000DF91CF911F910F91FF90EF90DF90CF902F
:1015C0000C947E14DF91CF911F910F91FF90EF90BB
:1015D000DF90CF900895CF92DF92EF92FF920F931A
:1015E0001F93CF93DF930E943E1160E080E00E9442
:1015F0001A110E940A118FE891E00E941E120E94A7
:101600000A1144E065E083E00E94920363E080E019
:101610000E941A118BEB91E00E941E128091D70656
:1016200090E00E94E411F090D706EF2CCAE0D1E0E0
:101630000E947C098091D706E81699F063E080E06B
:101640000E941A118BEB91E00E941E128091D70626
:1016500090E00E94E41188E690E00E941E12E09063
:10166000D706499BBFC04F9914C04F9BFECF2FEBAD
:101670008AE790E1215080409040E1F700C00000EF
:101680008091D706815019F08093D70602C0C0938D
:10169000D7061D9915C01D9BFECF2FEB8AE790E161
:1016A000215080409040E1F700C000008091D706B3
:1016B0008F5F8B3018F48093D70602C0D093D70683
:1016C0004E99B6CF4E9BFECF2FEB8AE790E121508B
:1016D00080409040E1F700C000008091D706F816E6
:1016E00009F480C08091000190910101019609F4F4
:1016F00079C080E090E00E94141889E191E0909315
:10170000DD068093DC060E9434061092D806109203
:10171000D9061092DA061092DB06809100019091B2
:1017200001010E948318FC012091E706828D938DB0
:101730002B3071F4C488D588E12CF12C7601DD249E
:10174000CC24A0E0B0E0C82AD92AEA2AFB2A03C0A8
:101750006C01E12CF12C82E0C81AD108E108F108F3
:10176000A091F606B0E0A70196010E94981A009198
:10177000E3061091E4062091E5063091E606600F3D
:10178000711F821F931F0E942714E091DC06F091C5
:10179000DD0680819181A281B3818D3C9240AB4A6C
:1017A000B14001F58091D7068483A091F606B0E0A0
:1017B000A70196010E94981AC090E306D090E40613
:1017C000E090E506F090E6066C0D7D1D8E1D9F1DD8
:1017D000DF91CF911F910F91FF90EF90DF90CF900D
:1017E0000C947E14DF91CF911F910F91FF90EF9099
:1017F000DF90CF900895CF93DF930E943E1160E079
:1018000080E00E941A110E940A118CE192E00E946D
:101810001E120E940A1145E064E083E00E949203D8
:1018200062E080E00E941A110E94021180EF91E0B4
:101830000E941E120E94021163E080E00E941A11B1
:101840008AED91E00E941E12C1E00E947C094F992E
:1018500022C04F9BFECF2FEB8AE790E121508040C2
:101860009040E1F700C00000C130A1F462E080E0E8
:101870000E941A1180EF91E00E941E120E94021134
:1018800063E080E00E941A118AED91E00E941E122E
:101890000E940211C2E01D992CC01D9BFECF2FEBB0
:1018A0008AE790E1215080409040E1F700C00000BD
:1018B000DFEFDC0F01F1D13011F40E94021162E080
:1018C00080E00E941A1180EF91E00E941E12C25027
:1018D000C23010F40E94021163E080E00E941A11ED
:1018E0008AED91E00E941E12D23031F40E94021162
:1018F00003C0DC2F01C0D1E04E9B02C0CD2FA5CF8D
:101900004E9BFECF2FEB8AE790E121508040904024
:10191000E1F700C00000D13021F4DF91CF910C94A9
:10192000EB0AD23021F4DF91CF910C948009DF9142
:10193000CF910895AF92BF92CF92DF92EF92FF9234
:101940000F931F93CF93DF93CDB7DEB728970FB6D2
:10195000F894DEBF0FBECDBF1092090110920801AE
:1019600089E191E09093DD068093DC0685ED93E0BC
:1019700090939E0680939D068FEF9FEFDC018093EE
:10198000D8069093D906A093DA06B093DB060E949E
:1019900034060E940A1160E080E00E941A1181E77B
:1019A00091E00E941E120E940A1145E064E083E06B
:1019B0000E94920311E0612F80E00E941A1186E0DC
:1019C00092E00E941E121F5F1630A9F763E080E0CC
:1019D0000E941A1182E691E00E941E1200E010E0BF
:1019E000C8010E9483187C01009799F0FC01808156
:1019F00081110FC08091080190910901892BB1F5E7
:101A000063E080E00E941A118CE491E00E941E12B3
:101A100054C1C7010E94BF03811105C0C7010E94C4
:101A2000D5038823A1F0E0919D06F0919E06809158
:101A3000080190910901E80FF91F008380910801C6
:101A400090910901019690930901809308010F5F1D
:101A50001F4F8091080190910901883C910554F62F
:101A60000039F1E01F0709F0BBCFC4CF63E080E08D
:101A70000E941A1186E391E00E941E1280910801D3
:101A80009091090102971CF0C12CD12C5DC04091AE
:101A90000801509109016091060170910701E091E0
:101AA0009D06F0919E0600E010E080E090E05FC0AF
:101AB000E0919D06F0919E06E00FF11F808190E07D
:101AC0000E94831848E050E0BC01CE0101960E94BC
:101AD000C51A780121E0E21AF108E0919D06F09123
:101AE0009E06EE0DFF1D808190E00E94831848E065
:101AF00050E0BC01CE0101960E94B81A97FF15C0B4
:101B000080919D0690919E06FC01E00FF11F2081BF
:101B1000DC01AE0DBF1D8C91808380919D0690915C
:101B20009E06FC01EE0DFF1D20830F5F1F4F80916D
:101B30000801909109018C199D09081719070CF4E7
:101B4000B7CF8FEFC81AD80A809108019091090188
:101B50000197C816D9060CF09ACF01E010E0E7CF44
:101B6000219130E02617370709F48C01019684177C
:101B70009507B4F3EE24EA94FE2C0E947C09499B5D
:101B80009CC04F9916C04F9BFECF9FEBEAE7F0E158
:101B90009150E040F040E1F700C000000F5F1F4FA0
:101BA00080910801909109010817190711F400E0CC
:101BB00010E01D9915C01D9BFECF2FEB8AE790E129
:101BC000215080409040E1F700C000000150110911
:101BD00017FF06C000910801109109010150110979
:101BE0004E992DC04E9BFECFEFEBFAE720E1E1507E
:101BF000F0402040E1F700C00000E0919D06F09128
:101C00009E06E00FF11F808190E00E9483187C0106
:101C10000E94D503882331F0C7010E9414180E9446
:101C20009A0C4BC080919D0690919E06FC01E00F9E
:101C3000F11F8081B70190E00E9469073EC00E1538
:101C40001F0509F49ACFE0919D06F0919E06E00FE2
:101C5000F11F808190E00E9483187C0163E080E0A6
:101C60000E941A11C7010E94D503882319F086E04B
:101C700090E002C081E090E00E942D1267015701C0
:101C800088E0A80EB11CE12CF60181916F01803231
:101C900019F00E94A410E394AC14BD04A9F7F12C30
:101CA00020E1E216F1043CF480E20E94A410FFEF70
:101CB000EF1AFF0AF5CF780160CF28960FB6F89497
:101CC000DEBF0FBECDBFDF91CF911F910F91FF906F
:101CD000EF90DF90CF90BF90AF900895CF92DF92BA
:101CE000EF92FF920F931F93CF93DF9389E191E0DF
:101CF0009093DD068093DC068FEF9FEFDC018093ED
:101D0000D8069093D906A093DA06B093DB0680E05C
:101D100090E00E9414188FEF9FEF90930101809341
:101D20000001CFEFDFEF00E010E0C8010E94831850
:101D30007C01009709F48FC0FC018081882309F49D
:101D400091C0C7010E94BF03882329F0CF3FFFEF56
:101D5000DF0709F4E8014BE050E060E770E0C701FD
:101D60000E94AA1A892B09F076C0109301010093F2
:101D700000012091E706F701828D938D2B3079F4D5
:101D800024893589A90160E070E0BA01552744270C
:101D9000A0E0B0E0482B592B6A2B7B2B03C0AC0191
:101DA00060E070E0A091F6069A01AB012250310983
:101DB00041095109B0E00E94981AC090E306D09002
:101DC000E406E090E506F090E6066C0D7D1D8E1DA4
:101DD0009F1D0E942714E090DC06F090DD06F701BD
:101DE00080819181A281B3818D3C9240AB4AB14008
:101DF00051F5F70184818093D70681898093A106EC
:101E00000E9496105C98F70185819681A781B08524
:101E10008093EC069093ED06A093EE06B093EF0648
:101E2000D184F2848D2D9F2D0E948318009739F064
:101E30000E94BF03882319F0CD2DDF2D13C080E051
:101E400090E00E94141880E090E00E941418CF3FA8
:101E5000FFEFDF07E1F40F5F1F4F003921E01207AA
:101E600009F063CFCF3F8FEFD80789F4F8940E9431
:101E70009A0C499B1BC08091CE06882331F080913B
:101E80006E00816080936E00E89A78940FC0CE0156
:101E90000E948318BC01CE01DF91CF911F910F9159
:101EA000FF90EF90DF90CF900C946907DF91CF9176
:101EB0001F910F91FF90EF90DF90CF9008950E94B7
:101EC0007C09499912C08FEF90E049996BC0019746
:101ED000E1F780916E008E7F80936E00E8981092FB
:101EE000CE061092A0060C942803309B3FC04E9B58
:101EF00004C04F9B02C01D9939C04E9910C084E6A2
:101F000090E021E04E9920E00197E1F7222309F4C7
:101F100049C04E9BFECFF8940E949A0C24C04F9962
:101F200012C084E690E021E04F9920E00197E1F7AC
:101F3000222309F437C04F9BFECFF8940E94FB0B7D
:101F4000499B30C022C01D992DC084E690E021E05D
:101F50001D9920E00197E1F7222321F11D9BFECF7F
:101F6000F8940E94DD08499912C01CC08091CE06E9
:101F7000811118C08FEF90E0499B14C00197E1F7E1
:101F8000F89481E00E94590681110E946E0E8091A2
:101F9000CE06882331F080916E00816080936E00C0
:101FA000E89A7894089596E09A95F1F7089508953F
:101FB000349BFECFA894089508953D983C98459889
:101FC000449888279927359B0895349B089581E08C
:101FD000089581E00895349BEBDF3D9AE4DF2AD039
:101FE000089581E008953C9ADEDF3D98DCDF3C985F
:101FF000DADF349BDDDF3D9AD6DF1CD0089581E027
:1020000008958F938F918F93349BD2DF3D9ACBDFCE
:1020100011D0882311F404D0F5CF0F9008950895BE
:102020003C9A3D9AC0DF3C98BEDF349BC1DF3D98AF
:10203000BADF08950894881F01C0880FB9F03C9A50
:1020400000000000000018F400003D9802C03D9A16
:1020500000C0A9DF3C98A894000000000000349B59
:10206000A7DF12F4882712C09EDFE7CF3C9A00005A
:1020700000003D9898DF992788273C98A894000095
:10208000349B96DF7AF3359B81E08DDF0000000002
:102090003C9A089581E0089571E03C9A3D980000D3
:1020A0000000000080DF3C987EDFA8940000000064
:1020B0000000349B7DDFB2F0889435990894771F37
:1020C00060F73C9A803011F03D9801C03D9A0000C5
:1020D0000000000068DF3C98A89400000000349BDA
:1020E00067DF61DF000000003C9A872F9927089581
:1020F00080E20895CF93C82F88E70E94EB0F80E01D
:102100000E941A108C2F0E941A10CF910C9410105C
:10211000CF93C82F88E70E94EB0F80E40E941A102B
:102120008C2F0E941A10CF910C941010CF93C82FAF
:1021300081E890E00E947A108C2F90E00E947A1043
:10214000C093D206CF9108950F931F93CF93DF933F
:10215000C82F88E70E94EB0F80E40E941A1085E0E8
:10216000C89FE001112400E010E0C05AD109FE012F
:10217000E00FF11FEE5CFB4FE4918091D0068111DE
:10218000E0958091D306813011F080E001C080E8B5
:1021900091E02091D106213009F090E0E92B8E2BBF
:1021A0000E941A100F5F1F4F0530110501F781E0E3
:1021B0009091D006913009F080E0982F9195809110
:1021C000D306813011F020E001C020E881E0309199
:1021D000D106313009F080E0892B822B0E941A1041
:1021E000DF91CF911F910F910C941010CF93DF933B
:1021F000EC018991882319F00E94A410FACFDF9195
:10220000CF91089581E09091D006911180E0809364
:10221000D006089581E09091D306911180E08093DB
:10222000D306089581E09091D106911180E08093CA
:10223000D1060895CF93DF93C82F862F90E0805565
:102240009F4F0E947A10C695C695C69588E0C89F94
:10225000E001112420919306CE0188709927820F06
:10226000911D0E947A10CE0124E0959587952A95BC
:10227000E1F74096DF91CF910C947A100F931F9362
:10228000CF93C0E06C2F80E00E941A1104E810E0A8
:1022900080E00E94881001501109D1F7CF5FC8304B
:1022A00089F7CF911F910F910C94101081EA90E063
:1022B0000E947A1088EC90E00E947A100C943E11F3
:1022C0000E94DD0F8EEA90E00E947A1086EA90E08C
:1022D0000E947A1085ED90E00E947A1080E890E0EC
:1022E0000E947A1088EA90E00E947A108FE390E0D2
:1022F0000E947A1083ED90E00E947A1080E090E0D6
:102300000E947A1080E490E00E947A108DE890E0BC
:102310000E947A1084E190E00E947A1080E290E0BE
:102320000E947A1080E090E00E947A1080EA90E0AB
:102330000E947A1088EC90E00E947A108AED90E07A
:102340000E947A1082E190E00E947A1081E890E089
:102350000E947A108FEC90E00E947A1089ED90E054
:102360000E947A1081EF90E00E947A108BED90E04D
:102370000E947A1080E490E00E947A1084EA90E053
:102380000E947A1086EA90E00E947A108FEA90E02C
:102390000E947A108FEC8093D2068093A10682E08F
:1023A000809393061092D0061092D3061092D10615
:1023B0000C94561180EA90E00E947A1080EC90E034
:1023C0000E947A100C943E11CF93DF93CDB7DEB705
:1023D0002A970FB6F894DEBF0FBECDBF4AE0BE010C
:1023E0006F5F7F4F0E94D91ACE0101960E94F610AE
:1023F0002A960FB6F894DEBF0FBECDBFDF91CF9106
:102400000895CF93DF93CDB7DEB72A970FB6F89430
:10241000DEBF0FBECDBF2AE0AE014F5F5F4F0E940F
:10242000E41ACE0101960E94F6102A960FB6F8948F
:10243000DEBF0FBECDBFDF91CF910895CF93DF9365
:10244000FC018491EF012196882321F00E94A410C1
:10245000FE01F7CFDF91CF910895EF92FF920F9396
:102460001F93CF93DF937C018CE08E9D80018F9D25
:10247000100D1124C0E0D0E08FEFE816F10439F020
:10248000FE01E00FF11FE252FC4FE49101C0E0E0D9
:102490008091D0068111E0958091D306813011F0B2
:1024A00080E001C080E891E02091D106213009F060
:1024B00090E0E92B8E2B0E9488102196CC30D1051C
:1024C000D9F681E09091D006913009F080E0982F04
:1024D00091958091D306813011F020E001C020E871
:1024E00081E03091D106313009F080E0892B822BD8
:1024F000DF91CF911F910F91FF90EF900C94881076
:10250000EF92FF920F931F93CF93E12CF12CC0E039
:102510006C2F89E10E941A1100E010E0F801EE0D25
:10252000FF1DE459FD4F84910E9488100F5F1F4FDB
:102530000A34110599F7CF5F8AE4E80EF11CC53023
:1025400039F7CF911F910F91FF90EF900895549A12
:10255000539A559A50981092D406089528E030E086
:1025600090E840E258E068E2782F792319F05BB9EF
:102570006BB902C01BB84BB9969521503109A1F730
:102580001BB80895CF93DF931F92CDB7DEB788E0D5
:102590008BB9198280E028E238E09981983051F0B7
:1025A0002BB999B1880F9170892B3BB999819F5FA5
:1025B0009983F3CF0F90DF91CF91089588E38BB982
:1025C00088E18BB9089528E100002A95E9F7019781
:1025D000D1F708950895DF92EF92FF920F931F9322
:1025E000CF93DF93082FC8E0D0E010E880E2F82E08
:1025F00098E0E92E28E2D22E802F812339F0EBB823
:1026000081E090E00E94E312DBB806C01BB881E0D5
:1026100090E00E94E312FBB81695219769F781E0DC
:1026200090E00E94E3121BB8DF91CF911F910F91B0
:10263000FF90EF90DF9008959091D406911103C020
:102640000E94EB1202C00E94AE1280E00895FF9239
:102650000F931F93CF93DF931F92CDB7DEB788E020
:102660008BB981E090E00E94E312198210E008E249
:1026700088E0F82E8981883091F00BB981E090E0F4
:102680000E94E31289B1110F8170182BFBB881E011
:1026900090E00E94E31289818F5F8983EBCF812FC5
:1026A0000F90DF91CF911F910F91FF90089580912E
:1026B000D406811102C00C9427130C94C21288E333
:1026C0008BB981E090E00E94E31288E18BB981E050
:1026D00090E00C94E31281E08093D4060895109268
:1026E000D40608950E94C21287FDFCCF0895CF92B0
:1026F000DF92EF92FF92CF93C82F6A017B01009087
:10270000D60604C0CC0CDD1CEE1CFF1C0A94D2F7CC
:102710008FEF0E94AE128C2F80640E94AE128F2D1C
:102720000E94AE128E2D0E94AE128D2D0E94AE120E
:102730008C2D0E94AE1285E90E94AE128FEF0E948E
:10274000AE120E9472138093E10681508E3FC8F34F
:10275000CF91FF90EF90DF90CF900895AB01BC0137
:102760001092DF0681E10E9477130E94C2128093CB
:10277000E2068E3FD1F70895CF92DF92EF92FF925B
:10278000CF93DF93C82F6A017B018091DE06811110
:1027900013C08FEE8C0F823040F088EE8C0F8230A9
:1027A00020F080EE8C0F823038F489E0CC0CDD1CF8
:1027B000EE1CFF1C8A95D1F78FEF0E941C138C2F03
:1027C00080640E941C138F2D0E941C138E2D0E946A
:1027D0001C138D2D0E941C138C2D0E941C13C830BD
:1027E00011F487E801C085E90E941C13F12C0E94B6
:1027F0005713D82F8F3F21F4FA94F110F8CF1DC052
:1028000081111BC0CA33C9F40E9457131092D60617
:1028100086FF05C081E08093DE0682E006C010924C
:10282000DE0689E08093D60681E08093E0060E9470
:1028300057130E9457130E9457130E9457138D2F4E
:10284000DF91CF91FF90EF90DF90CF900895CF92DE
:10285000DF92EF92FF92CF93DF93C090D806D09093
:10286000D906E090DA06F090DB06C616D706E80631
:10287000F906E1F16B017C016093D8067093D906EB
:102880008093DA069093DB065C988FEF0E941C130E
:102890008FEF0E941C13B701A60181E10E94BC13B7
:1028A000811125C0C0E0D0E00E9457138E3F29F06F
:1028B0002197D1F75C9A80E01AC0E12CF12CC091ED
:1028C000DC06D091DD06CE0DDF1D0E9457138883F4
:1028D0008FEFE81AF80AE11482E0F80681F70E9407
:1028E00057130E9457130E9457135C9A81E0DF919F
:1028F000CF91FF90EF90DF90CF900895CF93DF932B
:10290000AB01BC0188E10E94BC1381113DC05C9801
:102910008EEF0E941C13C0E0D0E0E091DC06F09145
:10292000DD06EC0FFD1F80810E941C132196C1154E
:1029300082E0D80791F78FEF0E941C138FEF0E945F
:102940001C130E945713982F9F71953079F4C0E0A3
:10295000D0E00E945713811103C02196D1F706C021
:102960005C9A8FEF0E941C135C9808C05C9A0CC0A4
:102970009E012F5F3F4F2196C9F3E9010E94571333
:102980008823B1F35C9A81E0DF91CF910895AB0188
:10299000BC0180E10C94BC13CF92DF92EF92FF92C6
:1029A0000F931F93CF93DF931092D50685E080930A
:1029B000D7060E94A7120E946F1389B1C82FC27058
:1029C00081FF98C080E185B95C9A8FE097E2A0E032
:1029D000B0E08093D8069093D906A093DA06B0931E
:1029E000DB06C4E60E945F13C150E1F75C98CCE0BF
:1029F0008FEF0E941C13C150D9F700E018E040E0AF
:102A000050E0BA0180E00E94BC130150110931F47A
:102A100015B85C9A81E08093D5066CC0813079F757
:102A2000CCE08FEF0E941C13C150D9F7C1E0D2E077
:102A30004AEA51E060E070E088E00E94BC138A3A04
:102A400049F481E08093E006C12CD12CE12C80E494
:102A5000F82E09C08130A9F3219751F71092E006B2
:102A6000C12CD12C7601CCE08FEF0E941C13C150F9
:102A7000D9F701E012E040E050E0BA0187E30E949C
:102A8000BC13B701A60189E20E94BC1301501109D1
:102A900031F482E08093D50615B85C9A2BC0811181
:102AA000EACF1092DE0689E08093D6068091E00698
:102AB000813081F040E050E0BA018BE30E94BC130A
:102AC00060E072E080E090E00E94C71415B85C9A64
:102AD000C1E010C0C5E6D0E08FEF0E941C1340E0BB
:102AE00050E0BA018AE30E94BC13219719F38111C7
:102AF000F3CFE0CF8C2FDF91CF911F910F91FF90FB
:102B0000EF90DF90CF90089580E185B9089515B8D2
:102B100008950E94C212499B02C08F3FD1F70895C9
:102B20008F929F92AF92BF92CF92DF92EF92FF92DD
:102B30001F93CF93DF9360E070E0CB010E942714D6
:102B4000E091DC06F091DD0680818D7F893E51F1B8
:102B5000DF01A250BE4F8D919C9185359A4A11F0AC
:102B600086E014C0E254FE4F84818093E7066085BE
:102B70007185828593850E942714E091DC06F0918F
:102B8000DD0680818D7F893E29F083E08093D50624
:102B900080E0A7C08091E7068B3021F0863011F0ED
:102BA00084E0F4CFC091DC06D091DD0643855485E6
:102BB0005093F1064093F00615851093F60686852E
:102BC0009785C48CD58CE68CF78CC80ED91EE11C79
:102BD000F11CC092F206D092F306E092F406F09255
:102BE000F5068091E706863019F4A689B78902C0F8
:102BF000ACA1BDA1208930E02A9FB0012B9F700DB0
:102C00003A9F700D112446015701860E971EA11C94
:102C1000B11C8092E3069092E406A092E506B09281
:102C2000E6068630D9F08CA59DA5AEA5BFA59C0172
:102C3000AD012250310941095109A12FB0E00E9494
:102C4000981A860E971EA81EB91E8092E8069092CA
:102C5000E906A092EA06B092EB0624C00E94891A07
:102C6000C60ED71EE81EF91EC092E806D092E906ED
:102C7000E092EA06F092EB068189928935E0880FAE
:102C8000991F3A95E1F7BA010E94531AC60ED71E52
:102C9000E11CF11CC092E306D092E406E092E50646
:102CA000F092E606812F90E020E031E0320F813093
:102CB000910521F096958795232FF7CF2093F7065E
:102CC0008091E8069091E906A091EA06B091EB06A2
:102CD0008093EC069093ED06A093EE06B093EF067A
:102CE00081E0DF91CF911F91FF90EF90DF90CF9027
:102CF000BF90AF909F908F9008954F925F926F9288
:102D00007F928F929F92AF92BF92CF92DF92EF927B
:102D1000FF92CF932091E706263039F488248A94D5
:102D2000982CA12CB12C21E007C088248A94982CDF
:102D3000A82C2FE0B22E22E004C0660F771F881F58
:102D4000991F2A95D2F72091F0063091F10640E0C4
:102D500050E00E94671A6B017C018091F20690910D
:102D6000F306A091F406B091F50629013A01480E48
:102D7000591E6A1E7B1ECAE0C301B2010E942714BD
:102D8000882311F0C150C1F78091DC069091DD06D7
:102D9000FC01EC0DFD1D80819181A281B381BC01FC
:102DA000CD01682179218A219B21CF91FF90EF905D
:102DB000DF90CF90BF90AF909F908F907F906F905B
:102DC0005F904F9008954F925F926F927F928F9293
:102DD0009F92AF92BF92CF92DF92EF92FF92CF93EA
:102DE00088EEC82E83E0D82EE12CF12CC701B60165
:102DF0000E947D16611571058105910591F030EAFB
:102E0000C31636E8D30631E0E306F10431F02FEFC4
:102E1000C21AD20AE20AF20AE9CF60E070E0CB01FE
:102E200051C040EAC41646E8D40641E0E406F10485
:102E300009F448C08091E706863011F481E001C0B2
:102E400082E0A701960104C0220F331F441F551FC3
:102E50008A95D2F7CA01B9012091F0063091F106A6
:102E600040E050E00E94671A2B013C018091F2067D
:102E70009091F306A091F406B091F50649015A012C
:102E8000880E991EAA1EBB1ECAE0C501B4010E948D
:102E90002714882311F0C150C1F78091DC0690916E
:102EA000DD06FC01E40DF51D8FEF90E0A0E0B0E041
:102EB00080839183A283B383C501B4010E947E14F1
:102EC000C701B601CF91FF90EF90DF90CF90BF90F8
:102ED000AF909F908F907F906F905F904F900895EC
:102EE0008F929F92AF92BF92CF92DF92EF92FF921A
:102EF0000F931F93CF93DF93EC0155E0CC0FDD1FB1
:102F00005A95E1F78E01012F112706952091F606BB
:102F1000622F70E0C8010E94531A7B018091EC0679
:102F20009091ED06A091EE06B091EF06672B09F4A3
:102F30004EC03091E706363071F48090E8069090EC
:102F4000E906A090EA06B090EB0688159905AA0557
:102F5000BB0509F45AC08090E3069090E406A09067
:102F6000E506B090E606BC01CD01681979098A0929
:102F70009B0930E040E050E00E94671ACA01B901A5
:102F80006E5F7F4F8F4F9F4FC12CD12C0E947D16BB
:102F90002FEFC21AD20ACE14DF04C1F79B01AC0195
:102FA0002250310941095109A091F606B0E00E9472
:102FB000981A8090E3069090E406A090E506B09001
:102FC000E606DC01CB01880D991DAA1DBB1D9801E9
:102FD000322F2227330FC21BD30B4091F6064E9D92
:102FE00090014F9D300D1124021B130BBC01CD012C
:102FF000600F711F811D911D0E9427148091DC06B6
:103000009091DD068C0F9D1F02C080E090E0DF9163
:10301000CF911F910F91FF90EF90DF90CF90BF90D5
:10302000AF909F908F9008950F931F93FC01892B71
:1030300049F48091E8069091E906A091EA06B091E2
:10304000EB0639C09385892F807194FF3DC0209194
:10305000E706828D938D2B3079F424893589A90177
:1030600060E070E0BA0155274427A0E0B0E0842B6F
:10307000952BA62BB72B02C0A0E0B0E00097A105CE
:10308000B105B9F29C01AD01225031094109510944
:10309000A091F606B0E00E94981A0091E306109104
:1030A000E4062091E5063091E606DC01CB01800FB5
:1030B000911FA21FB31F8093EC069093ED06A0937F
:1030C000EE06B093EF0681E01F910F910895FC0189
:1030D000892BB1F08081882399F0853E89F08E326A
:1030E00021F481818E3219F00BC0853049F083853F
:1030F0008E3131F08F3021F0883211F0CF010895F8
:1031000080E090E008950E9470170C94671800000A
:103110000000000000000000000000000000089512
:1031200000000000000000002091D7062A95F1F76A
:103130000895AF93AFB7AF93BF932F93A091CD06F0
:103140002091CC06A22BA8B9AAEAA6BD20E0E8DF10
:10315000A091CC06A8B9B091A006BB2341F0209362
:10316000CD062F91BF91AF91AFBFAF911895A8E257
:10317000ABB9A9B1A170AA0F2A2FA8E0ABB9A09151
:103180009106B09192061196A0939106B093920683
:10319000A03989F4BC3079F4A1E0A093A006CF93C4
:1031A000C0E7A8E0B8E2BBB9B8E0BBB9AA95D1F7CF
:1031B000CA95B9F7CF912093CD062F91BF91AF91CA
:1031C000AFBFAF9118952F932FB72F9330995AC057
:1031D0003F9330919A0626B124702327E1F326B15C
:1031E000247020939A0628E02A95F1F700004F9367
:1031F0005F936F937F938F93EF93FF9360E0E091E2
:10320000A206F091A3063DE541E00DC050919A065B
:1032100076B174707527E1F376B1747070939A0685
:103220007EE07A95F1F727E081E079B17470D1F40E
:1032300000007EE17A95F1F776B1747050919A06AC
:1032400070939A06752776957695880F872B2A9521
:1032500061F7853D09F461E06030C1F2819331503E
:103260004040A1F69F93AF93BF930E94C305BF91C7
:10327000AF919F91FF91EF918F917F916F915F91AE
:103280004F913F912F912FBF2F91189581E00E9470
:103290003D038FEF80931501CBE80E945F0F309BB9
:1032A00003C00E948715F9CF0E94841583B18F70E7
:1032B00090910B01891759F180930B01883049F0E7
:1032C000843009F4E7C0823009F4E6C08130F9F4B3
:1032D000E5C082E090919F06890FE82FE770E695A0
:1032E000F0E0E459FF4FE49180FFE295EF708E2FFC
:1032F000887009F0E86FE90FE53C08F0D1C0E09371
:103300009F0680919F068C3810F0C0939F06809195
:10331000CE06882309F4C1CF8091A006882309F442
:10332000BCCFF894809194068F5F8F708093940641
:1033300020919F06269526952093CF0690E030E1B8
:10334000239F800D911D112490939C0680939B06D2
:103350000090F70602C0969587950A94E2F790933D
:10336000170180931601880F991F880F991FFC0180
:10337000EC55F94F80819181A281B38180939506AC
:1033800090939606A0939706B093980680911501A6
:103390002817B9F02093150164E08CE00E941A11FF
:1033A00087E891E00E941E128091CF068A3020F4B7
:1033B00083E091E00E94F6108091CF0690E00E9499
:1033C000E4118091940690910C01981306C020910D
:1033D00011019091CF062917F1F090910D018913F9
:1033E00006C0209112019091CF062917A1F090916B
:1033F0000E01891306C0209113019091CF06291761
:1034000051F090910F01891308C09091140180919F
:10341000CF06981302C00E945B058091950690919B
:103420009606A0919706B09198060297A109B10956
:10343000AC01BD010090F70604C0440F551F661F84
:10344000771F0A94D2F78091E3069091E406A09149
:10345000E506B091E606840F951FA61FB71F2091C1
:10346000F60630E02150310940919B0650919C06B0
:1034700024233523BC01CD01620F731F811D911DD3
:103480000E94AE1310929206109291061092A0061E
:10349000789403CF84E01ECF86E01CCF80E01ACF63
:1034A00010929F062ECFAA1BBB1B51E107C0AA1F7B
:1034B000BB1FA617B70710F0A61BB70B881F991FD5
:1034C0005A95A9F780959095BC01CD010895A1E288
:1034D0001A2EAA1BBB1BFD010DC0AA1FBB1FEE1F8E
:1034E000FF1FA217B307E407F50720F0A21BB30BD9
:1034F000E40BF50B661F771F881F991F1A9469F755
:1035000060957095809590959B01AC01BD01CF01B0
:103510000895A29FB001B39FC001A39F700D811DAC
:103520001124911DB29F700D811D1124911D0895CC
:103530000E94891AA59F900DB49F900DA49F800DA5
:10354000911D11240895FB01DC0105900D920020CE
:10355000E1F70895FB01DC014150504030F08D91BE
:103560000590801919F40020B9F7881B990B08956C
:10357000FB01DC0104C08D910190801921F44150C0
:103580005040C8F7881B990B0895DC01FB0141509E
:10359000504058F049F001900D920020C1F7E61B11
:1035A000F70B3197CF0108951C9201900020E9F7A5
:1035B000F6CFBB274A3031F4992322F4BDE290952F
:1035C00081959F4F0C94161BBB272A3051F49923E9
:1035D00042F4BDE290958095709561957F4F8F4F35
:1035E0009F4F0C94F41ABB27FA01A62F621771059E
:1035F00081059105330B30FB66F0AA27660F771F14
:10360000881F991FAA1FA21710F0A21B639538509C
:10361000A9F7A05DAA3308F0A95DA19336F7B1110F
:10362000B1931082CA010C942F1BBB27FB015527B5
:10363000AA27880F991FAA1FA41710F0A41B83950F
:103640005051B9F7A05DAA3308F0A95DA193009786
:1036500079F7B111B1931192CB010C942F1BDC01BE
:10366000FC01672F71917723E1F7329704C07C91B9
:103670006D9370836291AE17BF07C8F30895F894F5
:02368000FFCF7A
:06368200FFFFFE20000026
:00000001FF
